:020000040000FA
:06000000A3EF04F0120062
:020006000000F8
:08000800809A000000000000D6
:100010000000808A000000000000000012000F0EA7
:10002000C16E0A0EE66EC6EC02F0E552929692940C
:10003000929A380ED7D90B0ED5D9010ED3D9060E08
:10004000D1D90C0ECFD965EF01F0D9CFE6FFE1CFC2
:10005000D9FF00000000000000002AD900000000C5
:1000600000000000956A0000000000000000809A77
:10007000000000000000000080940000000000006C
:10008000000080960000000000000000FE0EDB5023
:10009000836E0000000000000000808A0000000065
:1000A000000000000000000000000000809A000036
:1000B000000000000000E552E7CFD9FF1200D9CFC1
:1000C000E6FFE1CFD9FF0000000000000000F0D8FB
:1000D0000000000000000000956A00000000000021
:1000E0000000809A000000000000000080840000F2
:1000F00000000000000080960000000000000000EA
:10010000FE0EDB50836E0000000000000000808ABD
:1001100000000000000000000000000000000000DF
:10012000809A0000000000000000E552E7CFD9FFF0
:10013000120062D9E652FE0EDB0404E1FD0EDB5034
:10014000800F03D0FD0EDB50C00FFF0FDF6EDFCF3F
:10015000E6FF2DD9E55227D14FD931D908E02FD963
:1001600050D9FD0EDB2AFE0EF8E3DB2AF6D71BD1B1
:10017000D6D803D906E00B0EDB2A0C0EFAE3DB2AF5
:10018000F8D70AD911340EE210500008000E1154AD
:1001900009E20B0EDB060C0E01E2DB0626D9F1E3C9
:1001A000DB2AEFD718D9D890115004E60A0E105C5C
:1001B000000E115805E2200EEAD8F4E3DB2AF2D74C
:1001C000060E10D90F0EE15C02E2E16AE552E16E23
:1001D000EAD0A5D8D2D806E00B0EDB2A0C0EFAE343
:1001E000DB2AF8D7D9D8FA0EDB50126E136A1350F7
:1001F0001118E8AE02D0113404D01050125C115026
:10020000135814E2D7D811AE02D0D89003D0105CA6
:10021000000E115844E22D0EBAD801E3DB2AF5D8BE
:10022000F1E113501118EEE1D3D8ECD7B5D8113461
:1002300014E210500008000E11540FE20B0EDB0602
:100240000C0E01E2DB06D1D801E3DB2ADED8EEE1B9
:1002500013501118EBE1BCD8E9D7ACD811AE02D0DD
:10026000D89003D0105C000E115819E2CED804E1EA
:100270001350111801E1ACD87AD813501118E8AE18
:1002800002D0113404D01050125C1150135802E304
:10029000300E01D0200E7BD8E0E3DB2ADED7060E3D
:1002A000A1D80F0EE15C02E2E16AE552E16E7BD07B
:1002B000809A809495688086808A00000000000003
:1002C000000083BEFED7809A120096D8020EE12667
:1002D000400E88D8DE6ADD6ADECF10F0DDCF11F087
:1002E000D890115004E6400E105C000E115810E238
:1002F000DECFF6FFDDCFF7FF5C0EF626080EF72205
:100300000800F5507ED8DF2A010EE6E3DB2AE4D7A9
:10031000020EE15C02E2E16AE552E16E44D06CD883
:100320000F0EE1260B0EDB6A0C0EDB6A0D0EDB6A8C
:100330000E0EDB6AD9CFE6FFDACFE6FFD950FB0F0E
:10034000E96EFF0EDA20EA6EEECFE6FFEECFE6FFB3
:10035000EECFE6FFEFCFE6FF09EC02F0106E060EDF
:10036000E15E1050040EE66E70DEE552120033D8E6
:10037000F90EDB50126E136A12000B0EDB50D924FB
:10038000E96E0C0EDB50DA20EA6EEF50120039D81D
:100390000D0EDB2A0E0E12000B0EDBCF10F00C0E32
:1003A000DBCF11F01200E552E7CFD9FF12004DDE8E
:1003B000E552120010D8FA0EDB5000011200FD0EBB
:1003C000DBCFF6FFFE0EDBCFF7FF0800F550120083
:1003D0002E0E01EF02F00D0EDBCF10F00E0EDBCF74
:1003E00011F01200E66ED7EF01F0D9CF10F0DACF9E
:1003F00011F0C3DFC7EF01F0D9CFE6FFE1CFD9FF9E
:100400001200E66E5CDEE5521200B1DFE850101813
:020410001200D8
:0E041200D9CFE6FFDACFE6FFF80EE3CFD9FF31
:10042000F90EE3CFDAFFE652E652E652E652E65222
:10043000FB0EE124E76EFF0EE220E46EE652F30EBF
:10044000E3CFE6FFF30EE3CFE6FFF30EE3CFE6FFE5
:10045000F30EE3CFE6FF8EEC02F0F50EE124E96E39
:10046000FF0EE220EA6E7BEC02F019E17EEC02F076
:1004700018E17BEC02F017E17EEC02F016E17BEC78
:1004800002F015E17EEC02F014E17BEC02F013E1E6
:100490007EEC02F012E17BEC02F011E112D084EC70
:1004A00002F089EC02F084EC02F089EC02F084ECBA
:1004B00002F089EC02F084EC02F089EC02F084ECAA
:1004C00002F089EC02F0DE6AF50EE126FF0EE22270
:1004D000FF0EE3CFDAFFE552FF0EE3CFD9FFE5527F
:1004E000FA0EE124E96EFF0EE220EA6EEECFF3FF92
:1004F000EFCFF4FF1200EF380F0B1200EF500F0B8D
:1005000002E1EE52D8841200EF380F0B300FDE6E8E
:100510001200EE500F0B300FDE6E1200FA0EE3CF1A
:10052000E9FFFB0EE3CFEAFF200EE66EEE6AEE6A0D
:10053000EE6AEE6AEF6AD890FB0EE336FC0EE33605
:10054000FD0EE336FE0EE336ED36ED36ED36ED36D6
:10055000EF36FF0EE3060FE0BDEC02F0EE52BDEC0D
:1005600002F0EE52BDEC02F0EE52BDEC02F0EE52A3
:10057000BDEC02F0E1D7E56E1200030EEF24E8B601
:0C058000EF6E300EEF24E8BEEF6E000CB2
:04058C002DD86CEC0E
:1005900004F04FD029D883EC04F04BD0D9CFE6FF3C
:1005A000E1CFD9FFFE0EDBCF10F0116A126A136A99
:1005B0000A0E0B6E0C6A0D6A0E6A10C006F011C0AE
:1005C00007F012C008F013C009F06DEC03F002C090
:1005D00010F003C011F004C012F005C013F0025077
:1005E000E66EBEEC04F025D0D9CFE6FFE1CFD9FF0F
:1005F000FE0EDBCF06F0076A086A096AC40E0B6EAE
:10060000090E0C6E0D6A0E6A6DEC03F002C006F066
:1006100003C007F004C008F005C009F0E80E0B6E37
:10062000030E0C6E0D6A0E6AA5EC03F00650E66E22
:0C0630001200E552E552E7CFD9FF12009E
:04063C00060EF66E42
:10064000000EF76E000EF86E00010900F550856F80
:100650000900F550866F03E1856701D03DD00900A0
:10066000F550806F0900F550816F0900F550826FD9
:1006700009000900F550E96E0900F550EA6E09001D
:1006800009000900F550836F0900F550846F0900D7
:100690000900F6CF87F0F7CF88F0F8CF89F080C057
:1006A000F6FF81C0F7FF82C0F8FF0001835302E12B
:1006B000845307E00900F550EE6E8307F8E28407E3
:1006C000F9D787C0F6FF88C0F7FF89C0F8FF00019F
:0A06D0008507000E865BBFD71200FD
:0606DA0006500B02F3CFF5
:1006E00002F0F4CF03F00C02F3500326000EF420C6
:1006F000046E06500D02F3500426000EF420056E21
:1007000006500E02F350052607500B02F350032645
:10071000F4500422000E052207500C02F350042668
:10072000F450052207500D02F350052608500B0225
:10073000F3500426F450052208500C02F35005260D
:0A07400009500B02F35005261200C9
:06074A00006AE86A0EAE31
:10075000B2EF03F00B6C0C1E0D1E0E1E0C220D22B0
:100760000E22001E09AEBDEF03F0066C071E081E28
:10077000091E072208220922001E0AEC04F009BE05
:10078000D4EF03F000AE000C066C071E081E091E15
:10079000E86A072208220922026C031E041E051EB5
:1007A000032204220522000C00BEC4EF03F00188DE
:0207B000FF0C3C
:0E07B2004EEC04F00FEC00F0010EE66E24D8C1
:1007C0006A0EE66E090E1AD8010EE66E020E1CD8ED
:1007D000680EE66E090E12D8660EE66E090E0ED889
:1007E000640EE66E090E0AD8090EE66E020E0CD8EB
:1007F000620EE66E5FEC00F0E552FFD7E66EACEC01
:1008000000F0E552E5521200E66E99EC00F0E55278
:04081000E55212009B
:0C081400056A046A036A026A200EE76E9F
:10082000D8900636073608360936023603360436BF
:1008300005360B50025C0C5003580D5004580E50F6
:10084000055809E30B50025E0C50035A0D50045A30
:0C0850000E50055A062AE72EE4D71200CD
:04085C00080F120F60
:100860000A1F02020F090F090F0911001F11111FA2
:1008700011111F00110A041F041F04000E001F0A9B
:100880000A0A13001818070808080700040A1504C4
:0C0890000404040001031D151D030100F9
:04089C000F0EC16E0C
:1008A000070EB46EF19E9280809292928094929400
:1008B00080969296809A929A84909690849296923C
:1008C000849496948290949082929492938293804E
:0808D00093849388938A1200BF
:0808D800FF0EE350156EEF0E58
:1008E00001D0F30EE76EE72E73EF04F00C0E146EDA
:1008F000E76AE72E79EF04F0142E78EF04F0152E56
:0609000071EF04F012008B
:0A090600FF0EE350156E480E01D0FD
:100910004C0EE76EE72EFED7E76AE72EFED7152EC0
:06092000F7D700001200F1
:0A092600000EF36E00EE00F0060E66
:1009300001D81200EA6002D0EE6AFCD7F350E960F9
:060940001200EE6AFCD774
:0A09460015EE00F025EE00F0F86A4F
:10095000019C1EEC03F0C9EC04F0D9EC03F0FBD7CA
:02096000120083
:0E09620033003700620041002D58494E4748CF
:0C097000452057414E47204C4F4C2D00B5
:04097C00FF0EE35037
:10098000E84E1200000000D000D000D0E82EFAD7C8
:02099000120053
:02099200120051
:020000040030CA
:0100010002FC
:010002001FDE
:010003001EDE
:010005008377
:010006008178
:010008000FE8
:01000900C036
:01000A000FE6
:01000B00E014
:01000C000FE4
:01000D0040B2
:00000001FF
